{
  "abi": [
    {
      "type": "constructor",
      "inputs": [],
      "stateMutability": "nonpayable"
    },
    {
      "type": "function",
      "name": "VERSION",
      "inputs": [],
      "outputs": [
        {
          "name": "",
          "type": "string",
          "internalType": "string"
        }
      ],
      "stateMutability": "view"
    },
    {
      "type": "function",
      "name": "agentExists",
      "inputs": [
        {
          "name": "agentId",
          "type": "uint256",
          "internalType": "uint256"
        }
      ],
      "outputs": [
        {
          "name": "exists",
          "type": "bool",
          "internalType": "bool"
        }
      ],
      "stateMutability": "view"
    },
    {
      "type": "function",
      "name": "getAgent",
      "inputs": [
        {
          "name": "agentId",
          "type": "uint256",
          "internalType": "uint256"
        }
      ],
      "outputs": [
        {
          "name": "agentInfo",
          "type": "tuple",
          "internalType": "struct IIdentityRegistry.AgentInfo",
          "components": [
            {
              "name": "agentId",
              "type": "uint256",
              "internalType": "uint256"
            },
            {
              "name": "agentDomain",
              "type": "string",
              "internalType": "string"
            },
            {
              "name": "agentDID",
              "type": "string",
              "internalType": "string"
            },
            {
              "name": "agentAddress",
              "type": "address",
              "internalType": "address"
            },
            {
              "name": "description",
              "type": "string",
              "internalType": "string"
            }
          ]
        }
      ],
      "stateMutability": "view"
    },
    {
      "type": "function",
      "name": "getAgentCount",
      "inputs": [],
      "outputs": [
        {
          "name": "count",
          "type": "uint256",
          "internalType": "uint256"
        }
      ],
      "stateMutability": "view"
    },
    {
      "type": "function",
      "name": "newAgent",
      "inputs": [
        {
          "name": "agentDomain",
          "type": "string",
          "internalType": "string"
        },
        {
          "name": "agentDID",
          "type": "string",
          "internalType": "string"
        },
        {
          "name": "agentAddress",
          "type": "address",
          "internalType": "address"
        },
        {
          "name": "description",
          "type": "string",
          "internalType": "string"
        }
      ],
      "outputs": [
        {
          "name": "agentId",
          "type": "uint256",
          "internalType": "uint256"
        }
      ],
      "stateMutability": "nonpayable"
    },
    {
      "type": "function",
      "name": "resolveByAddress",
      "inputs": [
        {
          "name": "agentAddress",
          "type": "address",
          "internalType": "address"
        }
      ],
      "outputs": [
        {
          "name": "agentInfo",
          "type": "tuple",
          "internalType": "struct IIdentityRegistry.AgentInfo",
          "components": [
            {
              "name": "agentId",
              "type": "uint256",
              "internalType": "uint256"
            },
            {
              "name": "agentDomain",
              "type": "string",
              "internalType": "string"
            },
            {
              "name": "agentDID",
              "type": "string",
              "internalType": "string"
            },
            {
              "name": "agentAddress",
              "type": "address",
              "internalType": "address"
            },
            {
              "name": "description",
              "type": "string",
              "internalType": "string"
            }
          ]
        }
      ],
      "stateMutability": "view"
    },
    {
      "type": "function",
      "name": "resolveByDID",
      "inputs": [
        {
          "name": "agentDID",
          "type": "string",
          "internalType": "string"
        }
      ],
      "outputs": [
        {
          "name": "agentInfo",
          "type": "tuple",
          "internalType": "struct IIdentityRegistry.AgentInfo",
          "components": [
            {
              "name": "agentId",
              "type": "uint256",
              "internalType": "uint256"
            },
            {
              "name": "agentDomain",
              "type": "string",
              "internalType": "string"
            },
            {
              "name": "agentDID",
              "type": "string",
              "internalType": "string"
            },
            {
              "name": "agentAddress",
              "type": "address",
              "internalType": "address"
            },
            {
              "name": "description",
              "type": "string",
              "internalType": "string"
            }
          ]
        }
      ],
      "stateMutability": "view"
    },
    {
      "type": "function",
      "name": "resolveByDomain",
      "inputs": [
        {
          "name": "agentDomain",
          "type": "string",
          "internalType": "string"
        }
      ],
      "outputs": [
        {
          "name": "agentInfo",
          "type": "tuple",
          "internalType": "struct IIdentityRegistry.AgentInfo",
          "components": [
            {
              "name": "agentId",
              "type": "uint256",
              "internalType": "uint256"
            },
            {
              "name": "agentDomain",
              "type": "string",
              "internalType": "string"
            },
            {
              "name": "agentDID",
              "type": "string",
              "internalType": "string"
            },
            {
              "name": "agentAddress",
              "type": "address",
              "internalType": "address"
            },
            {
              "name": "description",
              "type": "string",
              "internalType": "string"
            }
          ]
        }
      ],
      "stateMutability": "view"
    },
    {
      "type": "function",
      "name": "updateAgent",
      "inputs": [
        {
          "name": "agentId",
          "type": "uint256",
          "internalType": "uint256"
        },
        {
          "name": "newAgentDomain",
          "type": "string",
          "internalType": "string"
        },
        {
          "name": "newAgentAddress",
          "type": "address",
          "internalType": "address"
        },
        {
          "name": "newAgentDID",
          "type": "string",
          "internalType": "string"
        },
        {
          "name": "newDescription",
          "type": "string",
          "internalType": "string"
        }
      ],
      "outputs": [
        {
          "name": "success",
          "type": "bool",
          "internalType": "bool"
        }
      ],
      "stateMutability": "nonpayable"
    },
    {
      "type": "function",
      "name": "updateDescription",
      "inputs": [
        {
          "name": "agentId",
          "type": "uint256",
          "internalType": "uint256"
        },
        {
          "name": "newDescription",
          "type": "string",
          "internalType": "string"
        }
      ],
      "outputs": [
        {
          "name": "success",
          "type": "bool",
          "internalType": "bool"
        }
      ],
      "stateMutability": "nonpayable"
    },
    {
      "type": "event",
      "name": "AgentRegistered",
      "inputs": [
        {
          "name": "agentId",
          "type": "uint256",
          "indexed": true,
          "internalType": "uint256"
        },
        {
          "name": "agentDomain",
          "type": "string",
          "indexed": false,
          "internalType": "string"
        },
        {
          "name": "agentAddress",
          "type": "address",
          "indexed": false,
          "internalType": "address"
        }
      ],
      "anonymous": false
    },
    {
      "type": "event",
      "name": "AgentUpdated",
      "inputs": [
        {
          "name": "agentId",
          "type": "uint256",
          "indexed": true,
          "internalType": "uint256"
        },
        {
          "name": "agentDomain",
          "type": "string",
          "indexed": false,
          "internalType": "string"
        },
        {
          "name": "agentAddress",
          "type": "address",
          "indexed": false,
          "internalType": "address"
        },
        {
          "name": "agentDID",
          "type": "string",
          "indexed": false,
          "internalType": "string"
        },
        {
          "name": "description",
          "type": "string",
          "indexed": false,
          "internalType": "string"
        }
      ],
      "anonymous": false
    },
    {
      "type": "error",
      "name": "AddressAlreadyRegistered",
      "inputs": []
    },
    {
      "type": "error",
      "name": "AgentNotFound",
      "inputs": []
    },
    {
      "type": "error",
      "name": "DIDAlreadyRegistered",
      "inputs": []
    },
    {
      "type": "error",
      "name": "DIDNotRegistered",
      "inputs": []
    },
    {
      "type": "error",
      "name": "DomainAlreadyRegistered",
      "inputs": []
    },
    {
      "type": "error",
      "name": "InvalidAddress",
      "inputs": []
    },
    {
      "type": "error",
      "name": "InvalidDomain",
      "inputs": []
    },
    {
      "type": "error",
      "name": "InvalidInput",
      "inputs": []
    },
    {
      "type": "error",
      "name": "UnauthorizedRegistration",
      "inputs": []
    },
    {
      "type": "error",
      "name": "UnauthorizedUpdate",
      "inputs": []
    }
  ],
  "bytecode": {
    "object": "0x608060405234801561001057600080fd5b506001600055611c39806100256000396000f3fe608060405234801561001057600080fd5b506004361061009e5760003560e01c806391cab63e1161006657806391cab63e14610128578063aa9548131461013e578063b2b0fd8c14610151578063de99f15714610164578063ffa1ad741461018657600080fd5b80630c638107146100a357806314dee4b3146100cc5780632de5aaf7146100ef57806339fb208b1461010257806378ddad1214610115575b600080fd5b6100b66100b136600461145f565b6101b7565b6040516100c391906114d1565b60405180910390f35b6100df6100da36600461159a565b6103ef565b60405190151581526020016100c3565b6100b66100fd3660046115e6565b610466565b6100df6101103660046115ff565b610688565b6100b66101233660046116b6565b610a5c565b610130610ce3565b6040519081526020016100c3565b61013061014c3660046116f8565b610cf9565b6100b661015f3660046116b6565b611054565b6100df6101723660046115e6565b600090815260016020526040902054151590565b6101aa604051806040016040528060058152602001640312e312e360dc1b81525081565b6040516100c391906117a6565b6101bf611410565b6001600160a01b038216600090815260036020526040812054908190036101f95760405163e93ba22360e01b815260040160405180910390fd5b600081815260016020818152604092839020835160a081019094528054845291820180549184019161022a906117b9565b80601f0160208091040260200160405190810160405280929190818152602001828054610256906117b9565b80156102a35780601f10610278576101008083540402835291602001916102a3565b820191906000526020600020905b81548152906001019060200180831161028657829003601f168201915b505050505081526020016002820180546102bc906117b9565b80601f01602080910402602001604051908101604052809291908181526020018280546102e8906117b9565b80156103355780601f1061030a57610100808354040283529160200191610335565b820191906000526020600020905b81548152906001019060200180831161031857829003601f168201915b505050918352505060038201546001600160a01b03166020820152600482018054604090920191610365906117b9565b80601f0160208091040260200160405190810160405280929190818152602001828054610391906117b9565b80156103de5780601f106103b3576101008083540402835291602001916103de565b820191906000526020600020905b8154815290600101906020018083116103c157829003601f168201915b505050505081525050915050919050565b60008381526001602052604081208054820361041e5760405163e93ba22360e01b815260040160405180910390fd5b60038101546001600160a01b0316331461044b57604051634f1f214760e01b815260040160405180910390fd5b6004810161045a848683611858565b50600195945050505050565b61046e611410565b600082815260016020818152604092839020835160a081019094528054845291820180549184019161049f906117b9565b80601f01602080910402602001604051908101604052809291908181526020018280546104cb906117b9565b80156105185780601f106104ed57610100808354040283529160200191610518565b820191906000526020600020905b8154815290600101906020018083116104fb57829003601f168201915b50505050508152602001600282018054610531906117b9565b80601f016020809104026020016040519081016040528092919081815260200182805461055d906117b9565b80156105aa5780601f1061057f576101008083540402835291602001916105aa565b820191906000526020600020905b81548152906001019060200180831161058d57829003601f168201915b505050918352505060038201546001600160a01b031660208201526004820180546040909201916105da906117b9565b80601f0160208091040260200160405190810160405280929190818152602001828054610606906117b9565b80156106535780601f1061062857610100808354040283529160200191610653565b820191906000526020600020905b81548152906001019060200180831161063657829003601f168201915b505050505081525050905080600001516000036106835760405163e93ba22360e01b815260040160405180910390fd5b919050565b6000888152600160205260408120805482036106b75760405163e93ba22360e01b815260040160405180910390fd5b60038101546001600160a01b031633146106e457604051634f1f214760e01b815260040160405180910390fd5b87158015906001600160a01b038916151590600190861515906108765760006107428e8e8080601f01602080910402602001604051908101604052809392919081815260200183838082843760009201919091525061129992505050565b90506002816040516107549190611919565b90815260200160405180910390205460001461078357604051637b857a6b60e01b815260040160405180910390fd5b600061081a876001018054610797906117b9565b80601f01602080910402602001604051908101604052809291908181526020018280546107c3906117b9565b80156108105780601f106107e557610100808354040283529160200191610810565b820191906000526020600020905b8154815290600101906020018083116107f357829003601f168201915b5050505050611299565b905060028160405161082c9190611919565b9081526020016040518091039020600090558e8e886001019182610851929190611858565b508f6002836040516108639190611919565b9081526040519081900360200190205550505b82156108f5576001600160a01b038b16600090815260036020526040902054156108b3576040516316a163b960e11b815260040160405180910390fd5b600385810180546001600160a01b039081166000908152602093909352604080842084905582546001600160a01b031916918f16918217909255825290208e90555b81156109d957600085600201805461090c906117b9565b9050111561093a576004856002016040516109279190611935565b9081526020016040518091039020600090555b88156109b95760048a8a6040516109529291906119ab565b9081526020016040518091039020546000146109815760405163ca2f36c360e01b815260040160405180910390fd5b600285016109908a8c83611858565b508d60048b8b6040516109a49291906119ab565b908152604051908190036020019020556109d9565b60408051602081019091526000815260028601906109d790826119bb565b505b80156109f057600485016109ee888a83611858565b505b60038501546040518f917fe550c064775027cf17b0738ebf5d2354a3cae166e6c5398d3f234735c59f5e7d91610a409160018a01916001600160a01b039091169060028b019060048c0190611af8565b60405180910390a25060019d9c50505050505050505050505050565b610a64611410565b6000610aa584848080601f01602080910402602001604051908101604052809392919081815260200183838082843760009201919091525061129992505050565b90506000600282604051610ab99190611919565b908152602001604051809103902054905080600003610aeb5760405163e93ba22360e01b815260040160405180910390fd5b600081815260016020818152604092839020835160a0810190945280548452918201805491840191610b1c906117b9565b80601f0160208091040260200160405190810160405280929190818152602001828054610b48906117b9565b8015610b955780601f10610b6a57610100808354040283529160200191610b95565b820191906000526020600020905b815481529060010190602001808311610b7857829003601f168201915b50505050508152602001600282018054610bae906117b9565b80601f0160208091040260200160405190810160405280929190818152602001828054610bda906117b9565b8015610c275780601f10610bfc57610100808354040283529160200191610c27565b820191906000526020600020905b815481529060010190602001808311610c0a57829003601f168201915b505050918352505060038201546001600160a01b03166020820152600482018054604090920191610c57906117b9565b80601f0160208091040260200160405190810160405280929190818152602001828054610c83906117b9565b8015610cd05780601f10610ca557610100808354040283529160200191610cd0565b820191906000526020600020905b815481529060010190602001808311610cb357829003601f168201915b5050505050815250509250505092915050565b60006001600054610cf49190611b61565b905090565b6000336001600160a01b03851614610d24576040516313444ccd60e11b815260040160405180910390fd5b6000879003610d465760405163b4fa3fb360e01b815260040160405180910390fd5b6000610d8789898080601f01602080910402602001604051908101604052809392919081815260200183838082843760009201919091525061129992505050565b9050600281604051610d999190611919565b908152602001604051809103902054600014610dc857604051637b857a6b60e01b815260040160405180910390fd5b8515610e0f5760048787604051610de09291906119ab565b908152602001604051809103902054600014610e0f5760405163ca2f36c360e01b815260040160405180910390fd5b6001600160a01b03851660009081526003602052604090205415610e46576040516316a163b960e11b815260040160405180910390fd5b600080549080610e5583611b7a565b9190505591506040518060a001604052808381526020018a8a8080601f016020809104026020016040519081016040528093929190818152602001838380828437600092019190915250505090825250604080516020601f8b0181900481028201810190925289815291810191908a908a90819084018382808284376000920191909152505050908252506001600160a01b03871660208083019190915260408051601f8801839004830281018301825287815292019190879087908190840183828082843760009201829052509390945250508481526001602081815260409092208451815591840151919250820190610f5090826119bb565b5060408201516002820190610f6590826119bb565b5060608201516003820180546001600160a01b0319166001600160a01b0390921691909117905560808201516004820190610fa090826119bb565b5090505081600282604051610fb59190611919565b908152604051908190036020019020558515610fef578160048888604051610fde9291906119ab565b908152604051908190036020019020555b6001600160a01b038516600090815260036020526040908190208390555182907faef1fcdf962a03943b677ae3b92ef1b34c972aeef794ed6e9ba5f599b461883b90611040908c908c908a90611b93565b60405180910390a250979650505050505050565b61105c611410565b6000600484846040516110709291906119ab565b9081526020016040518091039020549050806000036110a25760405163361a273360e01b815260040160405180910390fd5b600081815260016020818152604092839020835160a08101909452805484529182018054918401916110d3906117b9565b80601f01602080910402602001604051908101604052809291908181526020018280546110ff906117b9565b801561114c5780601f106111215761010080835404028352916020019161114c565b820191906000526020600020905b81548152906001019060200180831161112f57829003601f168201915b50505050508152602001600282018054611165906117b9565b80601f0160208091040260200160405190810160405280929190818152602001828054611191906117b9565b80156111de5780601f106111b3576101008083540402835291602001916111de565b820191906000526020600020905b8154815290600101906020018083116111c157829003601f168201915b505050918352505060038201546001600160a01b0316602082015260048201805460409092019161120e906117b9565b80601f016020809104026020016040519081016040528092919081815260200182805461123a906117b9565b80156112875780601f1061125c57610100808354040283529160200191611287565b820191906000526020600020905b81548152906001019060200180831161126a57829003601f168201915b50505050508152505091505092915050565b606060008290506000815167ffffffffffffffff8111156112bc576112bc6117f3565b6040519080825280601f01601f1916602001820160405280156112e6576020820181803683370190505b50905060005b825181101561140857604160f81b83828151811061130c5761130c611bd4565b01602001516001600160f81b0319161080159061134d5750605a60f81b83828151811061133b5761133b611bd4565b01602001516001600160f81b03191611155b156113af5782818151811061136457611364611bd4565b602001015160f81c60f81b60f81c602061137e9190611bea565b60f81b82828151811061139357611393611bd4565b60200101906001600160f81b031916908160001a9053506113f6565b8281815181106113c1576113c1611bd4565b602001015160f81c60f81b8282815181106113de576113de611bd4565b60200101906001600160f81b031916908160001a9053505b8061140081611b7a565b9150506112ec565b509392505050565b6040518060a0016040528060008152602001606081526020016060815260200160006001600160a01b03168152602001606081525090565b80356001600160a01b038116811461068357600080fd5b60006020828403121561147157600080fd5b61147a82611448565b9392505050565b60005b8381101561149c578181015183820152602001611484565b50506000910152565b600081518084526114bd816020860160208601611481565b601f01601f19169290920160200192915050565b60208152815160208201526000602083015160a060408401526114f760c08401826114a5565b90506040840151601f198085840301606086015261151583836114a5565b60608701516001600160a01b031660808781019190915287015186820390920160a08701529250905061154882826114a5565b95945050505050565b60008083601f84011261156357600080fd5b50813567ffffffffffffffff81111561157b57600080fd5b60208301915083602082850101111561159357600080fd5b9250929050565b6000806000604084860312156115af57600080fd5b83359250602084013567ffffffffffffffff8111156115cd57600080fd5b6115d986828701611551565b9497909650939450505050565b6000602082840312156115f857600080fd5b5035919050565b60008060008060008060008060a0898b03121561161b57600080fd5b88359750602089013567ffffffffffffffff8082111561163a57600080fd5b6116468c838d01611551565b909950975087915061165a60408c01611448565b965060608b013591508082111561167057600080fd5b61167c8c838d01611551565b909650945060808b013591508082111561169557600080fd5b506116a28b828c01611551565b999c989b5096995094979396929594505050565b600080602083850312156116c957600080fd5b823567ffffffffffffffff8111156116e057600080fd5b6116ec85828601611551565b90969095509350505050565b60008060008060008060006080888a03121561171357600080fd5b873567ffffffffffffffff8082111561172b57600080fd5b6117378b838c01611551565b909950975060208a013591508082111561175057600080fd5b61175c8b838c01611551565b909750955085915061177060408b01611448565b945060608a013591508082111561178657600080fd5b506117938a828b01611551565b989b979a50959850939692959293505050565b60208152600061147a60208301846114a5565b600181811c908216806117cd57607f821691505b6020821081036117ed57634e487b7160e01b600052602260045260246000fd5b50919050565b634e487b7160e01b600052604160045260246000fd5b601f82111561185357600081815260208120601f850160051c810160208610156118305750805b601f850160051c820191505b8181101561184f5782815560010161183c565b5050505b505050565b67ffffffffffffffff831115611870576118706117f3565b6118848361187e83546117b9565b83611809565b6000601f8411600181146118b857600085156118a05750838201355b600019600387901b1c1916600186901b178355611912565b600083815260209020601f19861690835b828110156118e957868501358255602094850194600190920191016118c9565b50868210156119065760001960f88860031b161c19848701351681555b505060018560011b0183555b5050505050565b6000825161192b818460208701611481565b9190910192915050565b6000808354611943816117b9565b6001828116801561195b57600181146119705761199f565b60ff198416875282151583028701945061199f565b8760005260208060002060005b858110156119965781548a82015290840190820161197d565b50505082870194505b50929695505050505050565b8183823760009101908152919050565b815167ffffffffffffffff8111156119d5576119d56117f3565b6119e9816119e384546117b9565b84611809565b602080601f831160018114611a1e5760008415611a065750858301515b600019600386901b1c1916600185901b17855561184f565b600085815260208120601f198616915b82811015611a4d57888601518255948401946001909101908401611a2e565b5085821015611a6b5787850151600019600388901b60f8161c191681555b5050505050600190811b01905550565b60008154611a88816117b9565b808552602060018381168015611aa55760018114611abf57611aed565b60ff1985168884015283151560051b880183019550611aed565b866000528260002060005b85811015611ae55781548a8201860152908301908401611aca565b890184019650505b505050505092915050565b608081526000611b0b6080830187611a7b565b6001600160a01b03861660208401528281036040840152611b2c8186611a7b565b90508281036060840152611b408185611a7b565b979650505050505050565b634e487b7160e01b600052601160045260246000fd5b81810381811115611b7457611b74611b4b565b92915050565b600060018201611b8c57611b8c611b4b565b5060010190565b6040815282604082015282846060830137600060608483018101919091526001600160a01b03929092166020820152601f909201601f191690910101919050565b634e487b7160e01b600052603260045260246000fd5b60ff8181168382160190811115611b7457611b74611b4b56fea264697066735822122003f13966430d0e5c046f7e66f78c1efd5fa59009eef58f5c3fbc60f0c6eba7ee64736f6c63430008130033",
    "linkReferences": {}
  },
  "methodIdentifiers": {
    "VERSION()": "ffa1ad74",
    "agentExists(uint256)": "de99f157",
    "getAgent(uint256)": "2de5aaf7",
    "getAgentCount()": "91cab63e",
    "newAgent(string,string,address,string)": "aa954813",
    "resolveByAddress(address)": "0c638107",
    "resolveByDID(string)": "b2b0fd8c",
    "resolveByDomain(string)": "78ddad12",
    "updateAgent(uint256,string,address,string,string)": "39fb208b",
    "updateDescription(uint256,string)": "14dee4b3"
  },
  "id": 16
}